{
  "_format": "hh-sol-artifact-1",
  "contractName": "CrowdFunding",
  "sourceName": "contracts/CrowdFunding.sol",
  "abi": [
    {
      "inputs": [
        {
          "internalType": "uint256",
          "name": "",
          "type": "uint256"
        }
      ],
      "name": "campaigns",
      "outputs": [
        {
          "internalType": "address",
          "name": "owner",
          "type": "address"
        },
        {
          "internalType": "string",
          "name": "title",
          "type": "string"
        },
        {
          "internalType": "string",
          "name": "description",
          "type": "string"
        },
        {
          "internalType": "uint256",
          "name": "target",
          "type": "uint256"
        },
        {
          "internalType": "uint256",
          "name": "deadline",
          "type": "uint256"
        },
        {
          "internalType": "uint256",
          "name": "amountCollected",
          "type": "uint256"
        },
        {
          "internalType": "string",
          "name": "image",
          "type": "string"
        },
        {
          "internalType": "bool",
          "name": "claimed",
          "type": "bool"
        }
      ],
      "stateMutability": "view",
      "type": "function"
    },
    {
      "inputs": [
        {
          "internalType": "uint256",
          "name": "_id",
          "type": "uint256"
        }
      ],
      "name": "claimFunds",
      "outputs": [],
      "stateMutability": "nonpayable",
      "type": "function"
    },
    {
      "inputs": [
        {
          "internalType": "address",
          "name": "_owner",
          "type": "address"
        },
        {
          "internalType": "string",
          "name": "_title",
          "type": "string"
        },
        {
          "internalType": "string",
          "name": "_description",
          "type": "string"
        },
        {
          "internalType": "uint256",
          "name": "_target",
          "type": "uint256"
        },
        {
          "internalType": "uint256",
          "name": "_deadline",
          "type": "uint256"
        },
        {
          "internalType": "string",
          "name": "_image",
          "type": "string"
        }
      ],
      "name": "createCampaign",
      "outputs": [
        {
          "internalType": "uint256",
          "name": "",
          "type": "uint256"
        }
      ],
      "stateMutability": "nonpayable",
      "type": "function"
    },
    {
      "inputs": [
        {
          "internalType": "uint256",
          "name": "_id",
          "type": "uint256"
        }
      ],
      "name": "donateToCampaign",
      "outputs": [],
      "stateMutability": "payable",
      "type": "function"
    },
    {
      "inputs": [],
      "name": "getCampaigns",
      "outputs": [
        {
          "components": [
            {
              "internalType": "address",
              "name": "owner",
              "type": "address"
            },
            {
              "internalType": "string",
              "name": "title",
              "type": "string"
            },
            {
              "internalType": "string",
              "name": "description",
              "type": "string"
            },
            {
              "internalType": "uint256",
              "name": "target",
              "type": "uint256"
            },
            {
              "internalType": "uint256",
              "name": "deadline",
              "type": "uint256"
            },
            {
              "internalType": "uint256",
              "name": "amountCollected",
              "type": "uint256"
            },
            {
              "internalType": "string",
              "name": "image",
              "type": "string"
            },
            {
              "internalType": "address[]",
              "name": "donors",
              "type": "address[]"
            },
            {
              "internalType": "uint256[]",
              "name": "donations",
              "type": "uint256[]"
            },
            {
              "internalType": "bool",
              "name": "claimed",
              "type": "bool"
            }
          ],
          "internalType": "struct CrowdFunding.Campaign[]",
          "name": "",
          "type": "tuple[]"
        }
      ],
      "stateMutability": "view",
      "type": "function"
    },
    {
      "inputs": [
        {
          "internalType": "uint256",
          "name": "_id",
          "type": "uint256"
        }
      ],
      "name": "getdonors",
      "outputs": [
        {
          "internalType": "address[]",
          "name": "",
          "type": "address[]"
        },
        {
          "internalType": "uint256[]",
          "name": "",
          "type": "uint256[]"
        }
      ],
      "stateMutability": "view",
      "type": "function"
    },
    {
      "inputs": [],
      "name": "numberOfCampaigns",
      "outputs": [
        {
          "internalType": "uint256",
          "name": "",
          "type": "uint256"
        }
      ],
      "stateMutability": "view",
      "type": "function"
    }
  ],
  "bytecode": "0x6080604052600060015534801561001557600080fd5b50611298806100256000396000f3fe6080604052600436106100705760003560e01c806342a4fda81161004e57806342a4fda8146100f457806398cf37ab146101075780639943e3a114610135578063a6b036331461015557600080fd5b806307ca140d14610075578063141961bc1461009e5780631b55e338146100d2575b600080fd5b34801561008157600080fd5b5061008b60015481565b6040519081526020015b60405180910390f35b3480156100aa57600080fd5b506100be6100b9366004610c61565b610177565b604051610095989796959493929190610cc0565b3480156100de57600080fd5b506100f26100ed366004610c61565b61035d565b005b6100f2610102366004610c61565b6105a3565b34801561011357600080fd5b50610127610122366004610c61565b6106be565b604051610095929190610d37565b34801561014157600080fd5b5061008b610150366004610e5e565b61078d565b34801561016157600080fd5b5061016a610898565b6040516100959190610f8b565b600060208190529081526040902080546001820180546001600160a01b0390921692916101a3906110af565b80601f01602080910402602001604051908101604052809291908181526020018280546101cf906110af565b801561021c5780601f106101f15761010080835404028352916020019161021c565b820191906000526020600020905b8154815290600101906020018083116101ff57829003601f168201915b505050505090806002018054610231906110af565b80601f016020809104026020016040519081016040528092919081815260200182805461025d906110af565b80156102aa5780601f1061027f576101008083540402835291602001916102aa565b820191906000526020600020905b81548152906001019060200180831161028d57829003601f168201915b5050505050908060030154908060040154908060050154908060060180546102d1906110af565b80601f01602080910402602001604051908101604052809291908181526020018280546102fd906110af565b801561034a5780601f1061031f5761010080835404028352916020019161034a565b820191906000526020600020905b81548152906001019060200180831161032d57829003601f168201915b5050506009909301549192505060ff1688565b600081815260208190526040902080546001600160a01b031633146103da5760405162461bcd60e51b815260206004820152602860248201527f4f6e6c79207468652063616d706169676e206f776e65722063616e20636c61696044820152673690333ab732399760c11b60648201526084015b60405180910390fd5b806004015442101561043a5760405162461bcd60e51b815260206004820152602360248201527f43616e6e6f7420636c61696d2066756e6473206265666f726520646561646c6960448201526237329760e91b60648201526084016103d1565b80600301548160050154101561049c5760405162461bcd60e51b815260206004820152602160248201527f54617267657420676f616c20686173206e6f74206265656e20726561636865646044820152601760f91b60648201526084016103d1565b600981015460ff16156104f15760405162461bcd60e51b815260206004820181905260248201527f46756e6473206861766520616c7265616479206265656e20636c61696d65642e60448201526064016103d1565b60098101805460ff19166001179055805460058201546040516000926001600160a01b031691908381818185875af1925050503d8060008114610550576040519150601f19603f3d011682016040523d82523d6000602084013e610555565b606091505b505090508061059e5760405162461bcd60e51b81526020600482015260156024820152742330b4b632b2103a379039b2b7321022ba3432b91760591b60448201526064016103d1565b505050565b6000818152602081905260409020600481015434919042106106075760405162461bcd60e51b815260206004820152601d60248201527f43616e6e6f7420646f6e61746520616674657220646561646c696e652e00000060448201526064016103d1565b600082116106675760405162461bcd60e51b815260206004820152602760248201527f446f6e6174696f6e20616d6f756e74206d7573742062652067726561746572206044820152663a3430b710181760c91b60648201526084016103d1565b600781018054600181810183556000928352602080842090920180546001600160a01b031916331790556008840180549182018155835291200182905560058101546106b49083906110f9565b6005909101555050565b6000818152602081815260409182902060078101805484518185028101850190955280855260609485949293600801929091849183018282801561072b57602002820191906000526020600020905b81546001600160a01b0316815260019091019060200180831161070d575b505050505091508080548060200260200160405190810160405280929190818152602001828054801561077d57602002820191906000526020600020905b815481526020019060010190808311610769575b5050505050905091509150915091565b60015460009081526020819052604081204284116108025760405162461bcd60e51b815260206004820152602c60248201527f54686520646561646c696e652073686f756c642062652061206461746520696e60448201526b103a343290333aba3ab9329760a11b60648201526084016103d1565b80546001600160a01b0319166001600160a01b038916178155600181016108298882611160565b50600281016108388782611160565b506003810185905560048101849055600060058201556006810161085c8482611160565b5060098101805460ff191690556001805490600061087983611220565b91905055506001805461088c9190611239565b98975050505050505050565b6060600060015467ffffffffffffffff8111156108b7576108b7610dbb565b60405190808252806020026020018201604052801561094957816020015b61093660405180610140016040528060006001600160a01b0316815260200160608152602001606081526020016000815260200160008152602001600081526020016060815260200160608152602001606081526020016000151581525090565b8152602001906001900390816108d55790505b50905060005b600154811015610c5b57600081815260208181526040918290208251610140810190935280546001600160a01b0316835260018101805491939284929084019190610999906110af565b80601f01602080910402602001604051908101604052809291908181526020018280546109c5906110af565b8015610a125780601f106109e757610100808354040283529160200191610a12565b820191906000526020600020905b8154815290600101906020018083116109f557829003601f168201915b50505050508152602001600282018054610a2b906110af565b80601f0160208091040260200160405190810160405280929190818152602001828054610a57906110af565b8015610aa45780601f10610a7957610100808354040283529160200191610aa4565b820191906000526020600020905b815481529060010190602001808311610a8757829003601f168201915b50505050508152602001600382015481526020016004820154815260200160058201548152602001600682018054610adb906110af565b80601f0160208091040260200160405190810160405280929190818152602001828054610b07906110af565b8015610b545780601f10610b2957610100808354040283529160200191610b54565b820191906000526020600020905b815481529060010190602001808311610b3757829003601f168201915b5050505050815260200160078201805480602002602001604051908101604052809291908181526020018280548015610bb657602002820191906000526020600020905b81546001600160a01b03168152600190910190602001808311610b98575b5050505050815260200160088201805480602002602001604051908101604052809291908181526020018280548015610c0e57602002820191906000526020600020905b815481526020019060010190808311610bfa575b50505091835250506009919091015460ff1615156020909101528351849084908110610c3c57610c3c61124c565b6020026020010181905250508080610c5390611220565b91505061094f565b50919050565b600060208284031215610c7357600080fd5b5035919050565b6000815180845260005b81811015610ca057602081850181015186830182015201610c84565b506000602082860101526020601f19601f83011685010191505092915050565b6001600160a01b038916815261010060208201819052600090610ce58382018b610c7a565b90508281036040840152610cf9818a610c7a565b90508760608401528660808401528560a084015282810360c0840152610d1f8186610c7a565b91505082151560e08301529998505050505050505050565b604080825283519082018190526000906020906060840190828701845b82811015610d795781516001600160a01b031684529284019290840190600101610d54565b5050508381038285015284518082528583019183019060005b81811015610dae57835183529284019291840191600101610d92565b5090979650505050505050565b634e487b7160e01b600052604160045260246000fd5b600082601f830112610de257600080fd5b813567ffffffffffffffff80821115610dfd57610dfd610dbb565b604051601f8301601f19908116603f01168101908282118183101715610e2557610e25610dbb565b81604052838152866020858801011115610e3e57600080fd5b836020870160208301376000602085830101528094505050505092915050565b60008060008060008060c08789031215610e7757600080fd5b86356001600160a01b0381168114610e8e57600080fd5b9550602087013567ffffffffffffffff80821115610eab57600080fd5b610eb78a838b01610dd1565b96506040890135915080821115610ecd57600080fd5b610ed98a838b01610dd1565b9550606089013594506080890135935060a0890135915080821115610efd57600080fd5b50610f0a89828a01610dd1565b9150509295509295509295565b600081518084526020808501945080840160005b83811015610f505781516001600160a01b031687529582019590820190600101610f2b565b509495945050505050565b600081518084526020808501945080840160005b83811015610f5057815187529582019590820190600101610f6f565b60006020808301818452808551808352604092508286019150828160051b87010184880160005b838110156110a157888303603f19018552815180516001600160a01b0316845261014088820151818a870152610fea82870182610c7a565b91505087820151858203898701526110028282610c7a565b606084810151908801526080808501519088015260a0808501519088015260c080850151888303828a0152919350915061103c8382610c7a565b9250505060e080830151868303828801526110578382610f17565b9250505061010080830151868303828801526110738382610f5b565b9250505061012080830151925061108d8187018415159052565b509588019593505090860190600101610fb2565b509098975050505050505050565b600181811c908216806110c357607f821691505b602082108103610c5b57634e487b7160e01b600052602260045260246000fd5b634e487b7160e01b600052601160045260246000fd5b8082018082111561110c5761110c6110e3565b92915050565b601f82111561059e57600081815260208120601f850160051c810160208610156111395750805b601f850160051c820191505b8181101561115857828155600101611145565b505050505050565b815167ffffffffffffffff81111561117a5761117a610dbb565b61118e8161118884546110af565b84611112565b602080601f8311600181146111c357600084156111ab5750858301515b600019600386901b1c1916600185901b178555611158565b600085815260208120601f198616915b828110156111f2578886015182559484019460019091019084016111d3565b50858210156112105787850151600019600388901b60f8161c191681555b5050505050600190811b01905550565b600060018201611232576112326110e3565b5060010190565b8181038181111561110c5761110c6110e3565b634e487b7160e01b600052603260045260246000fdfea264697066735822122067bf5ab89a70aca4719351cbfdbfcd707d66796563d68a63ddb5562252d5861a64736f6c63430008130033",
  "linkReferences": {},
  "deployedLinkReferences": {}
}