{
  "_format": "hh-sol-artifact-1",
  "contractName": "CrowdFunding",
  "sourceName": "contracts/CrowdFunding.sol",
  "abi": [
    {
      "inputs": [
        {
          "internalType": "uint256",
          "name": "",
          "type": "uint256"
        }
      ],
      "name": "campaigns",
      "outputs": [
        {
          "internalType": "address",
          "name": "owner",
          "type": "address"
        },
        {
          "internalType": "string",
          "name": "creatorName",
          "type": "string"
        },
        {
          "internalType": "string",
          "name": "title",
          "type": "string"
        },
        {
          "internalType": "string",
          "name": "description",
          "type": "string"
        },
        {
          "internalType": "uint256",
          "name": "target",
          "type": "uint256"
        },
        {
          "internalType": "uint256",
          "name": "deadline",
          "type": "uint256"
        },
        {
          "internalType": "uint256",
          "name": "amountCollected",
          "type": "uint256"
        },
        {
          "internalType": "string",
          "name": "image",
          "type": "string"
        },
        {
          "internalType": "bool",
          "name": "claimed",
          "type": "bool"
        },
        {
          "internalType": "bool",
          "name": "isActive",
          "type": "bool"
        }
      ],
      "stateMutability": "view",
      "type": "function"
    },
    {
      "inputs": [
        {
          "internalType": "uint256",
          "name": "_id",
          "type": "uint256"
        }
      ],
      "name": "claimFunds",
      "outputs": [],
      "stateMutability": "nonpayable",
      "type": "function"
    },
    {
      "inputs": [
        {
          "internalType": "address",
          "name": "_owner",
          "type": "address"
        },
        {
          "internalType": "string",
          "name": "_creatorName",
          "type": "string"
        },
        {
          "internalType": "string",
          "name": "_title",
          "type": "string"
        },
        {
          "internalType": "string",
          "name": "_description",
          "type": "string"
        },
        {
          "internalType": "uint256",
          "name": "_target",
          "type": "uint256"
        },
        {
          "internalType": "uint256",
          "name": "_deadline",
          "type": "uint256"
        },
        {
          "internalType": "string",
          "name": "_image",
          "type": "string"
        }
      ],
      "name": "createCampaign",
      "outputs": [
        {
          "internalType": "uint256",
          "name": "",
          "type": "uint256"
        }
      ],
      "stateMutability": "nonpayable",
      "type": "function"
    },
    {
      "inputs": [
        {
          "internalType": "uint256",
          "name": "_id",
          "type": "uint256"
        }
      ],
      "name": "deleteCampaign",
      "outputs": [],
      "stateMutability": "nonpayable",
      "type": "function"
    },
    {
      "inputs": [
        {
          "internalType": "uint256",
          "name": "_id",
          "type": "uint256"
        }
      ],
      "name": "donateToCampaign",
      "outputs": [],
      "stateMutability": "payable",
      "type": "function"
    },
    {
      "inputs": [],
      "name": "getCampaigns",
      "outputs": [
        {
          "components": [
            {
              "internalType": "address",
              "name": "owner",
              "type": "address"
            },
            {
              "internalType": "string",
              "name": "creatorName",
              "type": "string"
            },
            {
              "internalType": "string",
              "name": "title",
              "type": "string"
            },
            {
              "internalType": "string",
              "name": "description",
              "type": "string"
            },
            {
              "internalType": "uint256",
              "name": "target",
              "type": "uint256"
            },
            {
              "internalType": "uint256",
              "name": "deadline",
              "type": "uint256"
            },
            {
              "internalType": "uint256",
              "name": "amountCollected",
              "type": "uint256"
            },
            {
              "internalType": "string",
              "name": "image",
              "type": "string"
            },
            {
              "internalType": "address[]",
              "name": "donors",
              "type": "address[]"
            },
            {
              "internalType": "uint256[]",
              "name": "donations",
              "type": "uint256[]"
            },
            {
              "internalType": "bool",
              "name": "claimed",
              "type": "bool"
            },
            {
              "internalType": "bool",
              "name": "isActive",
              "type": "bool"
            }
          ],
          "internalType": "struct CrowdFunding.Campaign[]",
          "name": "",
          "type": "tuple[]"
        }
      ],
      "stateMutability": "view",
      "type": "function"
    },
    {
      "inputs": [
        {
          "internalType": "uint256",
          "name": "_id",
          "type": "uint256"
        }
      ],
      "name": "getdonors",
      "outputs": [
        {
          "internalType": "address[]",
          "name": "",
          "type": "address[]"
        },
        {
          "internalType": "uint256[]",
          "name": "",
          "type": "uint256[]"
        }
      ],
      "stateMutability": "view",
      "type": "function"
    },
    {
      "inputs": [],
      "name": "numberOfCampaigns",
      "outputs": [
        {
          "internalType": "uint256",
          "name": "",
          "type": "uint256"
        }
      ],
      "stateMutability": "view",
      "type": "function"
    },
    {
      "inputs": [
        {
          "internalType": "uint256",
          "name": "_id",
          "type": "uint256"
        }
      ],
      "name": "refund",
      "outputs": [],
      "stateMutability": "nonpayable",
      "type": "function"
    }
  ],
  "bytecode": "0x6080604052600060015534801561001557600080fd5b50611a4f806100256000396000f3fe6080604052600436106100865760003560e01c806342a4fda81161005957806342a4fda81461012c578063759701931461013f5780637660be5d1461015f57806398cf37ab1461017f578063a6b03633146101ad57600080fd5b806307ca140d1461008b578063141961bc146100b45780631b55e338146100ea578063278ecde11461010c575b600080fd5b34801561009757600080fd5b506100a160015481565b6040519081526020015b60405180910390f35b3480156100c057600080fd5b506100d46100cf36600461139d565b6101cf565b6040516100ab9a999897969594939291906113fc565b3480156100f657600080fd5b5061010a61010536600461139d565b61044c565b005b34801561011857600080fd5b5061010a61012736600461139d565b6106eb565b61010a61013a36600461139d565b610974565b34801561014b57600080fd5b5061010a61015a36600461139d565b610ae8565b34801561016b57600080fd5b506100a161017a36600461154f565b610d33565b34801561018b57600080fd5b5061019f61019a36600461139d565b610e53565b6040516100ab929190611620565b3480156101b957600080fd5b506101c2610f22565b6040516100ab9190611718565b600060208190529081526040902080546001820180546001600160a01b0390921692916101fb90611866565b80601f016020809104026020016040519081016040528092919081815260200182805461022790611866565b80156102745780601f1061024957610100808354040283529160200191610274565b820191906000526020600020905b81548152906001019060200180831161025757829003601f168201915b50505050509080600201805461028990611866565b80601f01602080910402602001604051908101604052809291908181526020018280546102b590611866565b80156103025780601f106102d757610100808354040283529160200191610302565b820191906000526020600020905b8154815290600101906020018083116102e557829003601f168201915b50505050509080600301805461031790611866565b80601f016020809104026020016040519081016040528092919081815260200182805461034390611866565b80156103905780601f1061036557610100808354040283529160200191610390565b820191906000526020600020905b81548152906001019060200180831161037357829003601f168201915b5050505050908060040154908060050154908060060154908060070180546103b790611866565b80601f01602080910402602001604051908101604052809291908181526020018280546103e390611866565b80156104305780601f1061040557610100808354040283529160200191610430565b820191906000526020600020905b81548152906001019060200180831161041357829003601f168201915b505050600a909301549192505060ff808216916101009004168a565b6000818152602081905260409020600a810154610100900460ff166104b85760405162461bcd60e51b815260206004820152601d60248201527f43616d706169676e206973206e6f206c6f6e676572206163746976652e00000060448201526064015b60405180910390fd5b80546001600160a01b031633146105225760405162461bcd60e51b815260206004820152602860248201527f4f6e6c79207468652063616d706169676e206f776e65722063616e20636c61696044820152673690333ab732399760c11b60648201526084016104af565b80600501544210156105825760405162461bcd60e51b815260206004820152602360248201527f43616e6e6f7420636c61696d2066756e6473206265666f726520646561646c6960448201526237329760e91b60648201526084016104af565b8060040154816006015410156105e45760405162461bcd60e51b815260206004820152602160248201527f54617267657420676f616c20686173206e6f74206265656e20726561636865646044820152601760f91b60648201526084016104af565b600a81015460ff16156106395760405162461bcd60e51b815260206004820181905260248201527f46756e6473206861766520616c7265616479206265656e20636c61696d65642e60448201526064016104af565b600a8101805460ff19166001179055805460068201546040516000926001600160a01b031691908381818185875af1925050503d8060008114610698576040519150601f19603f3d011682016040523d82523d6000602084013e61069d565b606091505b50509050806106e65760405162461bcd60e51b81526020600482015260156024820152742330b4b632b2103a379039b2b7321022ba3432b91760591b60448201526064016104af565b505050565b60008181526020819052604090206005810154421015806107165750600a810154610100900460ff16155b6107575760405162461bcd60e51b815260206004820152601260248201527121b0b73737ba103932b33ab732103cb2ba1760711b60448201526064016104af565b600a810154610100900460ff16156107d55780600401548160060154106107d55760405162461bcd60e51b815260206004820152602c60248201527f54617267657420676f616c20686173206265656e20726561636865642c20636160448201526b373737ba103932b33ab7321760a11b60648201526084016104af565b6000805b600883015481101561088157336001600160a01b03168360080182815481106108045761080461189a565b6000918252602090912001546001600160a01b03160361086f578260090181815481106108335761083361189a565b90600052602060002001548261084991906118c6565b915060008360090182815481106108625761086261189a565b6000918252602090912001555b80610879816118df565b9150506107d9565b50600081116108de5760405162461bcd60e51b8152602060048201526024808201527f4e6f2066756e647320746f20726566756e6420666f722074686973206164647260448201526332b9b99760e11b60648201526084016104af565b604051600090339083908381818185875af1925050503d8060008114610920576040519150601f19603f3d011682016040523d82523d6000602084013e610925565b606091505b505090508061096e5760405162461bcd60e51b81526020600482015260156024820152742330b4b632b2103a379039b2b7321022ba3432b91760591b60448201526064016104af565b50505050565b6000818152602081905260409020600a810154349190610100900460ff166109de5760405162461bcd60e51b815260206004820152601d60248201527f43616d706169676e206973206e6f206c6f6e676572206163746976652e00000060448201526064016104af565b80600501544210610a315760405162461bcd60e51b815260206004820152601d60248201527f43616e6e6f7420646f6e61746520616674657220646561646c696e652e00000060448201526064016104af565b60008211610a915760405162461bcd60e51b815260206004820152602760248201527f446f6e6174696f6e20616d6f756e74206d7573742062652067726561746572206044820152663a3430b710181760c91b60648201526084016104af565b600881018054600181810183556000928352602080842090920180546001600160a01b03191633179055600984018054918201815583529120018290556006810154610ade9083906118c6565b6006909101555050565b600081815260208190526040902080546001600160a01b03163314610b685760405162461bcd60e51b815260206004820152603060248201527f4f6e6c79207468652063616d706169676e206f776e65722063616e2064656c6560448201526f3a32903a34329031b0b6b830b4b3b71760811b60648201526084016104af565b600a810154610100900460ff16610bc15760405162461bcd60e51b815260206004820152601c60248201527f43616d706169676e20697320616c72656164792064656c657465642e0000000060448201526064016104af565b600a81015460ff1615610c245760405162461bcd60e51b815260206004820152602560248201527f46756e647320616c726561647920636c61696d65642c2063616e6e6f742064656044820152643632ba329760d91b60648201526084016104af565b60005b6008820154811015610d1a576000826009018281548110610c4a57610c4a61189a565b906000526020600020015490506000811115610d07576000836008018381548110610c7757610c7761189a565b60009182526020822001546009860180546001600160a01b0390921693509085908110610ca657610ca661189a565b60009182526020822001919091556040516001600160a01b0383169084908381818185875af1925050503d8060008114610cfc576040519150601f19603f3d011682016040523d82523d6000602084013e610d01565b606091505b50505050505b5080610d12816118df565b915050610c27565b50600a8101805461ff0019169055600060069091015550565b6001546000908152602081905260408120428411610da85760405162461bcd60e51b815260206004820152602c60248201527f54686520646561646c696e652073686f756c642062652061206461746520696e60448201526b103a343290333aba3ab9329760a11b60648201526084016104af565b80546001600160a01b0319166001600160a01b038a1617815560018101610dcf8982611946565b5060028101610dde8882611946565b5060038101610ded8782611946565b5060048101859055600581018490556000600682015560078101610e118482611946565b50600a8101805461ffff191661010017905560018054906000610e33836118df565b919050555060018054610e469190611a06565b9998505050505050505050565b60008181526020818152604091829020600881018054845181850281018501909552808552606094859492936009019290918491830182828015610ec057602002820191906000526020600020905b81546001600160a01b03168152600190910190602001808311610ea2575b5050505050915080805480602002602001604051908101604052809291908181526020018280548015610f1257602002820191906000526020600020905b815481526020019060010190808311610efe575b5050505050905091509150915091565b6060600060015467ffffffffffffffff811115610f4157610f416114ac565b604051908082528060200260200182016040528015610fe357816020015b610fd060405180610180016040528060006001600160a01b031681526020016060815260200160608152602001606081526020016000815260200160008152602001600081526020016060815260200160608152602001606081526020016000151581526020016000151581525090565b815260200190600190039081610f5f5790505b50905060005b60015481101561139757600081815260208181526040918290208251610180810190935280546001600160a01b031683526001810180549193928492908401919061103390611866565b80601f016020809104026020016040519081016040528092919081815260200182805461105f90611866565b80156110ac5780601f10611081576101008083540402835291602001916110ac565b820191906000526020600020905b81548152906001019060200180831161108f57829003601f168201915b505050505081526020016002820180546110c590611866565b80601f01602080910402602001604051908101604052809291908181526020018280546110f190611866565b801561113e5780601f106111135761010080835404028352916020019161113e565b820191906000526020600020905b81548152906001019060200180831161112157829003601f168201915b5050505050815260200160038201805461115790611866565b80601f016020809104026020016040519081016040528092919081815260200182805461118390611866565b80156111d05780601f106111a5576101008083540402835291602001916111d0565b820191906000526020600020905b8154815290600101906020018083116111b357829003601f168201915b5050505050815260200160048201548152602001600582015481526020016006820154815260200160078201805461120790611866565b80601f016020809104026020016040519081016040528092919081815260200182805461123390611866565b80156112805780601f1061125557610100808354040283529160200191611280565b820191906000526020600020905b81548152906001019060200180831161126357829003601f168201915b50505050508152602001600882018054806020026020016040519081016040528092919081815260200182805480156112e257602002820191906000526020600020905b81546001600160a01b031681526001909101906020018083116112c4575b505050505081526020016009820180548060200260200160405190810160405280929190818152602001828054801561133a57602002820191906000526020600020905b815481526020019060010190808311611326575b5050509183525050600a919091015460ff8082161515602084015261010090910416151560409091015283518490849081106113785761137861189a565b602002602001018190525050808061138f906118df565b915050610fe9565b50919050565b6000602082840312156113af57600080fd5b5035919050565b6000815180845260005b818110156113dc576020818501810151868301820152016113c0565b506000602082860101526020601f19601f83011685010191505092915050565b6001600160a01b038b168152610140602082018190526000906114218382018d6113b6565b90508281036040840152611435818c6113b6565b90508281036060840152611449818b6113b6565b90508860808401528760a08401528660c084015282810360e084015261146f81876113b6565b94151561010084015250509015156101209091015298975050505050505050565b80356001600160a01b03811681146114a757600080fd5b919050565b634e487b7160e01b600052604160045260246000fd5b600082601f8301126114d357600080fd5b813567ffffffffffffffff808211156114ee576114ee6114ac565b604051601f8301601f19908116603f01168101908282118183101715611516576115166114ac565b8160405283815286602085880101111561152f57600080fd5b836020870160208301376000602085830101528094505050505092915050565b600080600080600080600060e0888a03121561156a57600080fd5b61157388611490565b9650602088013567ffffffffffffffff8082111561159057600080fd5b61159c8b838c016114c2565b975060408a01359150808211156115b257600080fd5b6115be8b838c016114c2565b965060608a01359150808211156115d457600080fd5b6115e08b838c016114c2565b955060808a0135945060a08a0135935060c08a013591508082111561160457600080fd5b506116118a828b016114c2565b91505092959891949750929550565b604080825283519082018190526000906020906060840190828701845b828110156116625781516001600160a01b03168452928401929084019060010161163d565b5050508381038285015284518082528583019183019060005b818110156116975783518352928401929184019160010161167b565b5090979650505050505050565b600081518084526020808501945080840160005b838110156116dd5781516001600160a01b0316875295820195908201906001016116b8565b509495945050505050565b600081518084526020808501945080840160005b838110156116dd578151875295820195908201906001016116fc565b60006020808301818452808551808352604092508286019150828160051b87010184880160005b8381101561185857888303603f19018552815180516001600160a01b0316845261018088820151818a870152611777828701826113b6565b915050878201518582038987015261178f82826113b6565b915050606080830151868303828801526117a983826113b6565b92505050608080830151818701525060a080830151818701525060c080830151818701525060e080830151868303828801526117e583826113b6565b92505050610100808301518683038288015261180183826116a4565b92505050610120808301518683038288015261181d83826116e8565b92505050610140808301516118358288018215159052565b50506101609182015115159490910193909352938601939086019060010161173f565b509098975050505050505050565b600181811c9082168061187a57607f821691505b60208210810361139757634e487b7160e01b600052602260045260246000fd5b634e487b7160e01b600052603260045260246000fd5b634e487b7160e01b600052601160045260246000fd5b808201808211156118d9576118d96118b0565b92915050565b6000600182016118f1576118f16118b0565b5060010190565b601f8211156106e657600081815260208120601f850160051c8101602086101561191f5750805b601f850160051c820191505b8181101561193e5782815560010161192b565b505050505050565b815167ffffffffffffffff811115611960576119606114ac565b6119748161196e8454611866565b846118f8565b602080601f8311600181146119a957600084156119915750858301515b600019600386901b1c1916600185901b17855561193e565b600085815260208120601f198616915b828110156119d8578886015182559484019460019091019084016119b9565b50858210156119f65787850151600019600388901b60f8161c191681555b5050505050600190811b01905550565b818103818111156118d9576118d96118b056fea26469706673582212203a0ea634c0f01ce2273774aff410157ad923c5e34c18b84092b49e72acc7561564736f6c63430008130033",
  "linkReferences": {},
  "deployedLinkReferences": {}
}